{
  "contractName": "ForensicContract",
  "abi": [
    {
      "inputs": [],
      "stateMutability": "nonpayable",
      "type": "constructor"
    },
    {
      "anonymous": false,
      "inputs": [
        {
          "indexed": true,
          "internalType": "uint256",
          "name": "caseId",
          "type": "uint256"
        },
        {
          "indexed": true,
          "internalType": "address",
          "name": "grantee",
          "type": "address"
        },
        {
          "indexed": true,
          "internalType": "address",
          "name": "grantedBy",
          "type": "address"
        }
      ],
      "name": "AccessGranted",
      "type": "event"
    },
    {
      "anonymous": false,
      "inputs": [
        {
          "indexed": true,
          "internalType": "uint256",
          "name": "caseId",
          "type": "uint256"
        },
        {
          "indexed": true,
          "internalType": "address",
          "name": "revokedFrom",
          "type": "address"
        },
        {
          "indexed": true,
          "internalType": "address",
          "name": "revokedBy",
          "type": "address"
        }
      ],
      "name": "AccessRevoked",
      "type": "event"
    },
    {
      "anonymous": false,
      "inputs": [
        {
          "indexed": true,
          "internalType": "address",
          "name": "user",
          "type": "address"
        },
        {
          "indexed": false,
          "internalType": "bytes32",
          "name": "consentHash",
          "type": "bytes32"
        },
        {
          "indexed": false,
          "internalType": "uint256",
          "name": "timestamp",
          "type": "uint256"
        }
      ],
      "name": "ConsentLogged",
      "type": "event"
    },
    {
      "anonymous": false,
      "inputs": [
        {
          "indexed": true,
          "internalType": "uint256",
          "name": "firId",
          "type": "uint256"
        },
        {
          "indexed": true,
          "internalType": "address",
          "name": "accessedBy",
          "type": "address"
        },
        {
          "indexed": false,
          "internalType": "uint256",
          "name": "timestamp",
          "type": "uint256"
        }
      ],
      "name": "FIRAccessed",
      "type": "event"
    },
    {
      "anonymous": false,
      "inputs": [
        {
          "indexed": true,
          "internalType": "uint256",
          "name": "firId",
          "type": "uint256"
        },
        {
          "indexed": true,
          "internalType": "address",
          "name": "createdBy",
          "type": "address"
        },
        {
          "indexed": false,
          "internalType": "string",
          "name": "ipfsHash",
          "type": "string"
        }
      ],
      "name": "FIRCreated",
      "type": "event"
    },
    {
      "anonymous": false,
      "inputs": [
        {
          "indexed": true,
          "internalType": "uint256",
          "name": "index",
          "type": "uint256"
        },
        {
          "indexed": true,
          "internalType": "address",
          "name": "accessedBy",
          "type": "address"
        },
        {
          "indexed": false,
          "internalType": "uint256",
          "name": "timestamp",
          "type": "uint256"
        }
      ],
      "name": "ReportAccessed",
      "type": "event"
    },
    {
      "anonymous": false,
      "inputs": [
        {
          "indexed": true,
          "internalType": "uint256",
          "name": "crimeId",
          "type": "uint256"
        },
        {
          "indexed": true,
          "internalType": "address",
          "name": "addedBy",
          "type": "address"
        },
        {
          "indexed": false,
          "internalType": "string",
          "name": "ipfsHash",
          "type": "string"
        }
      ],
      "name": "ReportAdded",
      "type": "event"
    },
    {
      "anonymous": false,
      "inputs": [
        {
          "indexed": true,
          "internalType": "address",
          "name": "user",
          "type": "address"
        },
        {
          "indexed": false,
          "internalType": "enum ForensicContract.Role",
          "name": "role",
          "type": "uint8"
        }
      ],
      "name": "RoleAssigned",
      "type": "event"
    },
    {
      "inputs": [
        {
          "internalType": "address",
          "name": "",
          "type": "address"
        },
        {
          "internalType": "uint256",
          "name": "",
          "type": "uint256"
        }
      ],
      "name": "consentLogs",
      "outputs": [
        {
          "internalType": "address",
          "name": "user",
          "type": "address"
        },
        {
          "internalType": "bytes32",
          "name": "consentHash",
          "type": "bytes32"
        },
        {
          "internalType": "uint256",
          "name": "timestamp",
          "type": "uint256"
        }
      ],
      "stateMutability": "view",
      "type": "function",
      "constant": true
    },
    {
      "inputs": [],
      "name": "contractOwner",
      "outputs": [
        {
          "internalType": "address",
          "name": "",
          "type": "address"
        }
      ],
      "stateMutability": "view",
      "type": "function",
      "constant": true
    },
    {
      "inputs": [
        {
          "internalType": "uint256",
          "name": "",
          "type": "uint256"
        },
        {
          "internalType": "address",
          "name": "",
          "type": "address"
        }
      ],
      "name": "sharedAccess",
      "outputs": [
        {
          "internalType": "bool",
          "name": "",
          "type": "bool"
        }
      ],
      "stateMutability": "view",
      "type": "function",
      "constant": true
    },
    {
      "inputs": [
        {
          "internalType": "address",
          "name": "user",
          "type": "address"
        },
        {
          "internalType": "enum ForensicContract.Role",
          "name": "role",
          "type": "uint8"
        }
      ],
      "name": "assignRole",
      "outputs": [],
      "stateMutability": "nonpayable",
      "type": "function"
    },
    {
      "inputs": [
        {
          "internalType": "address",
          "name": "user",
          "type": "address"
        }
      ],
      "name": "getUserRole",
      "outputs": [
        {
          "internalType": "enum ForensicContract.Role",
          "name": "",
          "type": "uint8"
        }
      ],
      "stateMutability": "view",
      "type": "function",
      "constant": true
    },
    {
      "inputs": [
        {
          "internalType": "uint256",
          "name": "_firId",
          "type": "uint256"
        },
        {
          "internalType": "string",
          "name": "_description",
          "type": "string"
        },
        {
          "internalType": "string",
          "name": "_timestamp",
          "type": "string"
        },
        {
          "internalType": "string",
          "name": "_ipfsHash",
          "type": "string"
        }
      ],
      "name": "createFIR",
      "outputs": [
        {
          "internalType": "uint256",
          "name": "",
          "type": "uint256"
        }
      ],
      "stateMutability": "nonpayable",
      "type": "function"
    },
    {
      "inputs": [
        {
          "internalType": "uint256",
          "name": "index",
          "type": "uint256"
        }
      ],
      "name": "getFIR",
      "outputs": [
        {
          "internalType": "uint256",
          "name": "",
          "type": "uint256"
        },
        {
          "internalType": "string",
          "name": "",
          "type": "string"
        },
        {
          "internalType": "string",
          "name": "",
          "type": "string"
        },
        {
          "internalType": "address",
          "name": "",
          "type": "address"
        },
        {
          "internalType": "string",
          "name": "",
          "type": "string"
        }
      ],
      "stateMutability": "nonpayable",
      "type": "function"
    },
    {
      "inputs": [],
      "name": "getAllFIRs",
      "outputs": [
        {
          "components": [
            {
              "internalType": "uint256",
              "name": "firId",
              "type": "uint256"
            },
            {
              "internalType": "string",
              "name": "description",
              "type": "string"
            },
            {
              "internalType": "string",
              "name": "ipfsHash",
              "type": "string"
            },
            {
              "internalType": "address",
              "name": "createdBy",
              "type": "address"
            },
            {
              "internalType": "string",
              "name": "timestamp",
              "type": "string"
            }
          ],
          "internalType": "struct ForensicContract.FIRRecord[]",
          "name": "",
          "type": "tuple[]"
        }
      ],
      "stateMutability": "view",
      "type": "function",
      "constant": true
    },
    {
      "inputs": [
        {
          "internalType": "uint256",
          "name": "_crimeId",
          "type": "uint256"
        },
        {
          "internalType": "string",
          "name": "_exhibitName",
          "type": "string"
        },
        {
          "internalType": "string",
          "name": "_desc",
          "type": "string"
        },
        {
          "internalType": "string",
          "name": "_timestamp",
          "type": "string"
        },
        {
          "internalType": "string",
          "name": "_ipfsHash",
          "type": "string"
        }
      ],
      "name": "addReport",
      "outputs": [
        {
          "internalType": "uint256",
          "name": "",
          "type": "uint256"
        }
      ],
      "stateMutability": "nonpayable",
      "type": "function"
    },
    {
      "inputs": [
        {
          "internalType": "uint256",
          "name": "index",
          "type": "uint256"
        }
      ],
      "name": "getReport",
      "outputs": [
        {
          "internalType": "uint256",
          "name": "",
          "type": "uint256"
        },
        {
          "internalType": "string",
          "name": "",
          "type": "string"
        },
        {
          "internalType": "string",
          "name": "",
          "type": "string"
        },
        {
          "internalType": "string",
          "name": "",
          "type": "string"
        },
        {
          "internalType": "string",
          "name": "",
          "type": "string"
        },
        {
          "internalType": "address",
          "name": "",
          "type": "address"
        }
      ],
      "stateMutability": "nonpayable",
      "type": "function"
    },
    {
      "inputs": [],
      "name": "getAllReports",
      "outputs": [
        {
          "components": [
            {
              "internalType": "uint256",
              "name": "crimeId",
              "type": "uint256"
            },
            {
              "internalType": "string",
              "name": "exhibitName",
              "type": "string"
            },
            {
              "internalType": "string",
              "name": "desc",
              "type": "string"
            },
            {
              "internalType": "string",
              "name": "timestamp",
              "type": "string"
            },
            {
              "internalType": "string",
              "name": "ipfsHash",
              "type": "string"
            },
            {
              "internalType": "address",
              "name": "addedBy",
              "type": "address"
            }
          ],
          "internalType": "struct ForensicContract.CrimeDetails[]",
          "name": "",
          "type": "tuple[]"
        }
      ],
      "stateMutability": "view",
      "type": "function",
      "constant": true
    },
    {
      "inputs": [
        {
          "internalType": "uint256",
          "name": "caseId",
          "type": "uint256"
        },
        {
          "internalType": "address",
          "name": "agency",
          "type": "address"
        }
      ],
      "name": "grantAccess",
      "outputs": [],
      "stateMutability": "nonpayable",
      "type": "function"
    },
    {
      "inputs": [
        {
          "internalType": "uint256",
          "name": "caseId",
          "type": "uint256"
        },
        {
          "internalType": "address",
          "name": "agency",
          "type": "address"
        }
      ],
      "name": "revokeAccess",
      "outputs": [],
      "stateMutability": "nonpayable",
      "type": "function"
    },
    {
      "inputs": [
        {
          "internalType": "uint256",
          "name": "caseId",
          "type": "uint256"
        },
        {
          "internalType": "address",
          "name": "agency",
          "type": "address"
        }
      ],
      "name": "hasAccess",
      "outputs": [
        {
          "internalType": "bool",
          "name": "",
          "type": "bool"
        }
      ],
      "stateMutability": "view",
      "type": "function",
      "constant": true
    },
    {
      "inputs": [
        {
          "internalType": "bytes32",
          "name": "consentHash",
          "type": "bytes32"
        }
      ],
      "name": "logConsent",
      "outputs": [],
      "stateMutability": "nonpayable",
      "type": "function"
    },
    {
      "inputs": [
        {
          "internalType": "address",
          "name": "user",
          "type": "address"
        }
      ],
      "name": "getConsentLogs",
      "outputs": [
        {
          "components": [
            {
              "internalType": "address",
              "name": "user",
              "type": "address"
            },
            {
              "internalType": "bytes32",
              "name": "consentHash",
              "type": "bytes32"
            },
            {
              "internalType": "uint256",
              "name": "timestamp",
              "type": "uint256"
            }
          ],
          "internalType": "struct ForensicContract.ConsentRecord[]",
          "name": "",
          "type": "tuple[]"
        }
      ],
      "stateMutability": "view",
      "type": "function",
      "constant": true
    }
  ],
  "bytecode": "0x608060405234801561000f575f80fd5b5060018054336001600160a01b031990911681179091555f908152602081905260409020805460ff19166003179055611f538061004b5f395ff3fe608060405234801561000f575f80fd5b50600436106100fb575f3560e01c8063ce40037711610093578063e23a4a9211610063578063e23a4a921461028f578063f1a5c418146102c7578063f3d3ddfa146102eb578063fd95a9ee14610300575f80fd5b8063ce400377146101f6578063ce606ee014610209578063ced1419814610234578063d9a5ec1b1461027c575f80fd5b8063630a195b116100ce578063630a195b1461019a57806365dd152c146101ad5780639f3feb38146101c0578063c937ab62146101d5575f80fd5b806327820851146100ff57806341121364146101405780634c75d1ba146101605780634e7f9b1914610175575b5f80fd5b61012a61010d3660046117a8565b6001600160a01b03165f9081526020819052604090205460ff1690565b60405161013791906117dc565b60405180910390f35b61015361014e3660046117a8565b61032d565b6040516101379190611802565b61017361016e366004611863565b6103c3565b005b610188610183366004611863565b61046f565b604051610137969594939291906118bd565b6101736101a836600461192b565b610800565b6101736101bb366004611963565b61098e565b6101c8610a59565b604051610137919061198d565b6101e86101e3366004611ae8565b610cf6565b604051908152602001610137565b6101e8610204366004611b74565b610ea1565b60015461021c906001600160a01b031681565b6040516001600160a01b039091168152602001610137565b61026c610242366004611963565b5f9182526004602090815260408084206001600160a01b0393909316845291905290205460ff1690565b6040519015158152602001610137565b61017361028a366004611963565b611064565b6102a261029d366004611c23565b61112c565b604080516001600160a01b039094168452602084019290925290820152606001610137565b6102da6102d5366004611863565b611174565b604051610137959493929190611c4b565b6102f361146b565b6040516101379190611ca4565b61026c61030e366004611963565b600460209081525f928352604080842090915290825290205460ff1681565b6001600160a01b0381165f908152600560209081526040808320805482518185028101850190935280835260609492939192909184015b828210156103b8575f848152602090819020604080516060810182526003860290920180546001600160a01b0316835260018082015484860152600290910154918301919091529083529092019101610364565b505050509050919050565b60408051606081018252338082526020808301858152428486018181525f8581526005855287812080546001808201835591835291869020885160039093020180546001600160a01b0319166001600160a01b0390931692909217825593519381019390935551600290920191909155845186815291820152919290917fd3a00f2205dacf9d7f57bc15d165f4d01316cbc3cebea1e5cee90e53d2f71c5b910160405180910390a25050565b5f606080808084600180335f9081526020819052604090205460ff16600381111561049c5761049c6117c8565b14806104ca57506003335f9081526020819052604090205460ff1660038111156104c8576104c86117c8565b145b6104ef5760405162461bcd60e51b81526004016104e690611d6f565b60405180910390fd5b60025488106105305760405162461bcd60e51b815260206004820152600d60248201526c092dcecc2d8d2c840d2dcc8caf609b1b60448201526064016104e6565b5f6002898154811061054457610544611db5565b905f5260205f2090600602019050336001600160a01b0316897fba2a3f894c3ffdde5c28b3950c43082c348ebeab43adc01171252c870db774bf4260405161058e91815260200190565b60405180910390a3805f015481600101826002018360030184600401856005015f9054906101000a90046001600160a01b03168480546105cd90611dc9565b80601f01602080910402602001604051908101604052809291908181526020018280546105f990611dc9565b80156106445780601f1061061b57610100808354040283529160200191610644565b820191905f5260205f20905b81548152906001019060200180831161062757829003601f168201915b5050505050945083805461065790611dc9565b80601f016020809104026020016040519081016040528092919081815260200182805461068390611dc9565b80156106ce5780601f106106a5576101008083540402835291602001916106ce565b820191905f5260205f20905b8154815290600101906020018083116106b157829003601f168201915b505050505093508280546106e190611dc9565b80601f016020809104026020016040519081016040528092919081815260200182805461070d90611dc9565b80156107585780601f1061072f57610100808354040283529160200191610758565b820191905f5260205f20905b81548152906001019060200180831161073b57829003601f168201915b5050505050925081805461076b90611dc9565b80601f016020809104026020016040519081016040528092919081815260200182805461079790611dc9565b80156107e25780601f106107b9576101008083540402835291602001916107e2565b820191905f5260205f20905b8154815290600101906020018083116107c557829003601f168201915b50505050509150975097509750975097509750505091939550919395565b600380335f9081526020819052604090205460ff166003811115610826576108266117c8565b148061085457506003335f9081526020819052604090205460ff166003811115610852576108526117c8565b145b6108705760405162461bcd60e51b81526004016104e690611d6f565b6001600160a01b0383166108b85760405162461bcd60e51b815260206004820152600f60248201526e496e76616c6964206164647265737360881b60448201526064016104e6565b5f8260038111156108cb576108cb6117c8565b0361090f5760405162461bcd60e51b815260206004820152601460248201527343616e6e6f742061737369676e20274e6f6e652760601b60448201526064016104e6565b6001600160a01b0383165f908152602081905260409020805483919060ff19166001836003811115610943576109436117c8565b0217905550826001600160a01b03167f4ac36fa53f167ceb85964be512e01de2a3b8bdb9862f917da079deeeff689b388360405161098191906117dc565b60405180910390a2505050565b600380335f9081526020819052604090205460ff1660038111156109b4576109b46117c8565b14806109e257506003335f9081526020819052604090205460ff1660038111156109e0576109e06117c8565b145b6109fe5760405162461bcd60e51b81526004016104e690611d6f565b5f8381526004602090815260408083206001600160a01b0386168085529252808320805460ff1916600117905551339286917f97a8264d9d0b9e21370349f9b49be012a5d1e27829879df8ba166dba48f898c69190a4505050565b6060600380335f9081526020819052604090205460ff166003811115610a8157610a816117c8565b1480610aaf57506003335f9081526020819052604090205460ff166003811115610aad57610aad6117c8565b145b610acb5760405162461bcd60e51b81526004016104e690611d6f565b6003805480602002602001604051908101604052809291908181526020015f905b82821015610cec578382905f5260205f2090600502016040518060a00160405290815f8201548152602001600182018054610b2690611dc9565b80601f0160208091040260200160405190810160405280929190818152602001828054610b5290611dc9565b8015610b9d5780601f10610b7457610100808354040283529160200191610b9d565b820191905f5260205f20905b815481529060010190602001808311610b8057829003601f168201915b50505050508152602001600282018054610bb690611dc9565b80601f0160208091040260200160405190810160405280929190818152602001828054610be290611dc9565b8015610c2d5780601f10610c0457610100808354040283529160200191610c2d565b820191905f5260205f20905b815481529060010190602001808311610c1057829003601f168201915b505050918352505060038201546001600160a01b03166020820152600482018054604090920191610c5d90611dc9565b80601f0160208091040260200160405190810160405280929190818152602001828054610c8990611dc9565b8015610cd45780601f10610cab57610100808354040283529160200191610cd4565b820191905f5260205f20905b815481529060010190602001808311610cb757829003601f168201915b50505050508152505081526020019060010190610aec565b5050505091505090565b5f600180335f9081526020819052604090205460ff166003811115610d1d57610d1d6117c8565b1480610d4b57506003335f9081526020819052604090205460ff166003811115610d4957610d496117c8565b145b610d675760405162461bcd60e51b81526004016104e690611d6f565b6040805160a0810182528781526020810187815291810185905233606082015260808101869052600380546001810182555f91909152815160059091027fc2575a0e9e593c00f959f8c92f12db2869c3395a3b0502d05e2516446f71f85b81019182559251919290917fc2575a0e9e593c00f959f8c92f12db2869c3395a3b0502d05e2516446f71f85c90910190610dff9082611e4f565b5060408201516002820190610e149082611e4f565b5060608201516003820180546001600160a01b0319166001600160a01b0390921691909117905560808201516004820190610e4f9082611e4f565b505050336001600160a01b0316867f93584998712fe8e5da027427b547db5cc78214bb3bc331ba2c645b8806f077a485604051610e8c9190611f0b565b60405180910390a35050600354949350505050565b5f600280335f9081526020819052604090205460ff166003811115610ec857610ec86117c8565b1480610ef657506003335f9081526020819052604090205460ff166003811115610ef457610ef46117c8565b145b610f125760405162461bcd60e51b81526004016104e690611d6f565b6040805160c0810182528881526020810188815291810187905260608101869052608081018590523360a0820152600280546001810182555f91909152815160069091027f405787fa12a823e0f2b7631cc41b3ba8828b3321ca811111fa75cd3aa3bb5ace81019182559251919290917f405787fa12a823e0f2b7631cc41b3ba8828b3321ca811111fa75cd3aa3bb5acf90910190610fb19082611e4f565b5060408201516002820190610fc69082611e4f565b5060608201516003820190610fdb9082611e4f565b5060808201516004820190610ff09082611e4f565b5060a09190910151600590910180546001600160a01b0319166001600160a01b03909216919091179055604051339088907f9138ccac8d15498da1d5bddeb89c9459ae1fbc6cbe2b3b03fbc4486bb2db321e9061104e908790611f0b565b60405180910390a3505060025495945050505050565b600380335f9081526020819052604090205460ff16600381111561108a5761108a6117c8565b14806110b857506003335f9081526020819052604090205460ff1660038111156110b6576110b66117c8565b145b6110d45760405162461bcd60e51b81526004016104e690611d6f565b5f8381526004602090815260408083206001600160a01b0386168085529252808320805460ff1916905551339286917f260547d4038414ef72f081dcde91825693dff9bc433178f3e92ad36e0cd227509190a4505050565b6005602052815f5260405f208181548110611145575f80fd5b5f9182526020909120600390910201805460018201546002909201546001600160a01b03909116935090915083565b5f6060808281600180335f9081526020819052604090205460ff1660038111156111a0576111a06117c8565b14806111ce57506003335f9081526020819052604090205460ff1660038111156111cc576111cc6117c8565b145b6111ea5760405162461bcd60e51b81526004016104e690611d6f565b600354871061122b5760405162461bcd60e51b815260206004820152600d60248201526c092dcecc2d8d2c840d2dcc8caf609b1b60448201526064016104e6565b5f6003888154811061123f5761123f611db5565b905f5260205f2090600502019050336001600160a01b0316815f01547fd191cd5ade8c4270c877bd7ccafdb3b3390c90afc40f1fcfe132ee52db9938434260405161128c91815260200190565b60405180910390a380546003820154600183018054909160028501916001600160a01b0390911690600486019084906112c490611dc9565b80601f01602080910402602001604051908101604052809291908181526020018280546112f090611dc9565b801561133b5780601f106113125761010080835404028352916020019161133b565b820191905f5260205f20905b81548152906001019060200180831161131e57829003601f168201915b5050505050935082805461134e90611dc9565b80601f016020809104026020016040519081016040528092919081815260200182805461137a90611dc9565b80156113c55780601f1061139c576101008083540402835291602001916113c5565b820191905f5260205f20905b8154815290600101906020018083116113a857829003601f168201915b505050505092508080546113d890611dc9565b80601f016020809104026020016040519081016040528092919081815260200182805461140490611dc9565b801561144f5780601f106114265761010080835404028352916020019161144f565b820191905f5260205f20905b81548152906001019060200180831161143257829003601f168201915b5050505050905096509650965096509650505091939590929450565b6060600380335f9081526020819052604090205460ff166003811115611493576114936117c8565b14806114c157506003335f9081526020819052604090205460ff1660038111156114bf576114bf6117c8565b145b6114dd5760405162461bcd60e51b81526004016104e690611d6f565b6002805480602002602001604051908101604052809291908181526020015f905b82821015610cec578382905f5260205f2090600602016040518060c00160405290815f820154815260200160018201805461153890611dc9565b80601f016020809104026020016040519081016040528092919081815260200182805461156490611dc9565b80156115af5780601f10611586576101008083540402835291602001916115af565b820191905f5260205f20905b81548152906001019060200180831161159257829003601f168201915b505050505081526020016002820180546115c890611dc9565b80601f01602080910402602001604051908101604052809291908181526020018280546115f490611dc9565b801561163f5780601f106116165761010080835404028352916020019161163f565b820191905f5260205f20905b81548152906001019060200180831161162257829003601f168201915b5050505050815260200160038201805461165890611dc9565b80601f016020809104026020016040519081016040528092919081815260200182805461168490611dc9565b80156116cf5780601f106116a6576101008083540402835291602001916116cf565b820191905f5260205f20905b8154815290600101906020018083116116b257829003601f168201915b505050505081526020016004820180546116e890611dc9565b80601f016020809104026020016040519081016040528092919081815260200182805461171490611dc9565b801561175f5780601f106117365761010080835404028352916020019161175f565b820191905f5260205f20905b81548152906001019060200180831161174257829003601f168201915b5050509183525050600591909101546001600160a01b031660209182015290825260019290920191016114fe565b80356001600160a01b03811681146117a3575f80fd5b919050565b5f602082840312156117b8575f80fd5b6117c18261178d565b9392505050565b634e487b7160e01b5f52602160045260245ffd5b60208101600483106117fc57634e487b7160e01b5f52602160045260245ffd5b91905290565b602080825282518282018190525f919060409081850190868401855b8281101561185657815180516001600160a01b031685528681015187860152850151858501526060909301929085019060010161181e565b5091979650505050505050565b5f60208284031215611873575f80fd5b5035919050565b5f81518084525f5b8181101561189e57602081850181015186830182015201611882565b505f602082860101526020601f19601f83011685010191505092915050565b86815260c060208201525f6118d560c083018861187a565b82810360408401526118e7818861187a565b905082810360608401526118fb818761187a565b9050828103608084015261190f818661187a565b91505060018060a01b03831660a0830152979650505050505050565b5f806040838503121561193c575f80fd5b6119458361178d565b9150602083013560048110611958575f80fd5b809150509250929050565b5f8060408385031215611974575f80fd5b823591506119846020840161178d565b90509250929050565b5f6020808301818452808551808352604092508286019150828160051b8701018488015f5b83811015611a3d57603f19898403018552815160a08151855288820151818a8701526119e08287018261187a565b91505087820151858203898701526119f8828261187a565b6060848101516001600160a01b031690880152608093840151878203948801949094529150611a299050818361187a565b9689019694505050908601906001016119b2565b509098975050505050505050565b634e487b7160e01b5f52604160045260245ffd5b5f82601f830112611a6e575f80fd5b813567ffffffffffffffff80821115611a8957611a89611a4b565b604051601f8301601f19908116603f01168101908282118183101715611ab157611ab1611a4b565b81604052838152866020858801011115611ac9575f80fd5b836020870160208301375f602085830101528094505050505092915050565b5f805f8060808587031215611afb575f80fd5b84359350602085013567ffffffffffffffff80821115611b19575f80fd5b611b2588838901611a5f565b94506040870135915080821115611b3a575f80fd5b611b4688838901611a5f565b93506060870135915080821115611b5b575f80fd5b50611b6887828801611a5f565b91505092959194509250565b5f805f805f60a08688031215611b88575f80fd5b85359450602086013567ffffffffffffffff80821115611ba6575f80fd5b611bb289838a01611a5f565b95506040880135915080821115611bc7575f80fd5b611bd389838a01611a5f565b94506060880135915080821115611be8575f80fd5b611bf489838a01611a5f565b93506080880135915080821115611c09575f80fd5b50611c1688828901611a5f565b9150509295509295909350565b5f8060408385031215611c34575f80fd5b611c3d8361178d565b946020939093013593505050565b85815260a060208201525f611c6360a083018761187a565b8281036040840152611c75818761187a565b6001600160a01b038616606085015283810360808501529050611c98818561187a565b98975050505050505050565b5f6020808301818452808551808352604092508286019150828160051b8701018488015f5b83811015611a3d57603f19898403018552815160c08151855288820151818a870152611cf78287018261187a565b9150508782015185820389870152611d0f828261187a565b91505060608083015186830382880152611d29838261187a565b9250505060808083015186830382880152611d44838261187a565b60a0948501516001600160a01b03169790940196909652505094870194925090860190600101611cc9565b60208082526026908201527f4163636573732064656e6965643a20696e73756666696369656e742070726976604082015265696c6567657360d01b606082015260800190565b634e487b7160e01b5f52603260045260245ffd5b600181811c90821680611ddd57607f821691505b602082108103611dfb57634e487b7160e01b5f52602260045260245ffd5b50919050565b601f821115611e4a575f81815260208120601f850160051c81016020861015611e275750805b601f850160051c820191505b81811015611e4657828155600101611e33565b5050505b505050565b815167ffffffffffffffff811115611e6957611e69611a4b565b611e7d81611e778454611dc9565b84611e01565b602080601f831160018114611eb0575f8415611e995750858301515b5f19600386901b1c1916600185901b178555611e46565b5f85815260208120601f198616915b82811015611ede57888601518255948401946001909101908401611ebf565b5085821015611efb57878501515f19600388901b60f8161c191681555b5050505050600190811b01905550565b602081525f6117c1602083018461187a56fea264697066735822122093c75cb3cc2a4bae4d6cdb3f47b55c911f7980e6b535f039c370cf77c2655ff164736f6c63430008140033",
  "immutableReferences": {},
  "source": "// SPDX-License-Identifier: MIT\npragma solidity ^0.8.20;\n\n/**\n * @title ZRP Thadam - Forensic Contract\n * @notice Full blockchain-based forensic registry for Zimbabwe Republic Police (ZRP)\n * Implements tamper-proof evidence tracking, secure sharing, and legal compliance.\n * \n * Objectives covered:\n *  1 Tamper-proof record storage with RBAC\n *  2 Secure data sharing among agencies\n *  3 Event logging for accountability\n *  4 PII encryption anchoring (off-chain)\n *  5 Consent & data-protection compliance\n */\ncontract ForensicContract {\n    // ------------------------\n    //  ROLE MANAGEMENT\n    // ------------------------\n    enum Role { None, Police, Forensic, Admin }\n    mapping(address => Role) private roles;\n    address public contractOwner;\n\n    modifier onlyOwner() {\n        require(msg.sender == contractOwner, \"Access denied: not contract owner\");\n        _;\n    }\n\n    modifier onlyRole(Role r) {\n        require(\n            roles[msg.sender] == r || roles[msg.sender] == Role.Admin,\n            \"Access denied: insufficient privileges\"\n        );\n        _;\n    }\n\n    constructor() {\n        contractOwner = msg.sender;\n        roles[msg.sender] = Role.Admin; // Deployer = Admin\n    }\n\n    // ------------------------\n    //  STRUCTURES\n    // ------------------------\n    struct CrimeDetails {\n        uint256 crimeId;\n        string exhibitName;\n        string desc;          // short desc or reference\n        string timestamp;\n        string ipfsHash;      // CID of encrypted JSON\n        address addedBy;\n    }\n\n    struct FIRRecord {\n        uint256 firId;\n        string description;\n        string ipfsHash;      // Encrypted FIR data\n        address createdBy;\n        string timestamp;\n    }\n\n    // Storage\n    CrimeDetails[] private forensicRecords;\n    FIRRecord[] private firRecords;\n\n    // Shared Access: (caseId => address => accessGranted)\n    mapping(uint256 => mapping(address => bool)) public sharedAccess;\n\n    // Consent logs\n    struct ConsentRecord {\n        address user;\n        bytes32 consentHash;\n        uint256 timestamp;\n    }\n\n    mapping(address => ConsentRecord[]) public consentLogs;\n\n    // ------------------------\n    //  EVENTS\n    // ------------------------\n    event RoleAssigned(address indexed user, Role role);\n    event ReportAdded(uint256 indexed crimeId, address indexed addedBy, string ipfsHash);\n    event ReportAccessed(uint256 indexed index, address indexed accessedBy, uint256 timestamp);\n    event FIRCreated(uint256 indexed firId, address indexed createdBy, string ipfsHash);\n    event FIRAccessed(uint256 indexed firId, address indexed accessedBy, uint256 timestamp);\n    event AccessGranted(uint256 indexed caseId, address indexed grantee, address indexed grantedBy);\n    event AccessRevoked(uint256 indexed caseId, address indexed revokedFrom, address indexed revokedBy);\n    event ConsentLogged(address indexed user, bytes32 consentHash, uint256 timestamp);\n\n    // ------------------------\n    //  ROLE MANAGEMENT\n    // ------------------------\n    function assignRole(address user, Role role) external onlyRole(Role.Admin) {\n        require(user != address(0), \"Invalid address\");\n        require(role != Role.None, \"Cannot assign 'None'\");\n        roles[user] = role;\n        emit RoleAssigned(user, role);\n    }\n\n    function getUserRole(address user) external view returns (Role) {\n        return roles[user];\n    }\n\n    // ------------------------\n    //  FIR MANAGEMENT\n    // ------------------------\n    function createFIR(\n        uint256 _firId,\n        string memory _description,\n        string memory _timestamp,\n        string memory _ipfsHash\n    ) external onlyRole(Role.Police) returns (uint256) {\n        firRecords.push(FIRRecord({\n            firId: _firId,\n            description: _description,\n            ipfsHash: _ipfsHash,\n            createdBy: msg.sender,\n            timestamp: _timestamp\n        }));\n\n        emit FIRCreated(_firId, msg.sender, _ipfsHash);\n        return firRecords.length;\n    }\n\n    function getFIR(uint256 index)\n        external\n        onlyRole(Role.Police)\n        returns (\n            uint256,\n            string memory,\n            string memory,\n            address,\n            string memory\n        )\n    {\n        require(index < firRecords.length, \"Invalid index\");\n        FIRRecord storage record = firRecords[index];\n        emit FIRAccessed(record.firId, msg.sender, block.timestamp);\n        return (\n            record.firId,\n            record.description,\n            record.ipfsHash,\n            record.createdBy,\n            record.timestamp\n        );\n    }\n\n    function getAllFIRs() external view onlyRole(Role.Admin) returns (FIRRecord[] memory) {\n        return firRecords;\n    }\n\n    // ------------------------\n    //  FORENSIC REPORT MANAGEMENT\n    // ------------------------\n    function addReport(\n        uint256 _crimeId,\n        string memory _exhibitName,\n        string memory _desc,\n        string memory _timestamp,\n        string memory _ipfsHash\n    ) external onlyRole(Role.Forensic) returns (uint256) {\n        forensicRecords.push(CrimeDetails({\n            crimeId: _crimeId,\n            exhibitName: _exhibitName,\n            desc: _desc,\n            timestamp: _timestamp,\n            ipfsHash: _ipfsHash,\n            addedBy: msg.sender\n        }));\n\n        emit ReportAdded(_crimeId, msg.sender, _ipfsHash);\n        return forensicRecords.length;\n    }\n\n    function getReport(uint256 index)\n        external\n        onlyRole(Role.Police)\n        returns (\n            uint256,\n            string memory,\n            string memory,\n            string memory,\n            string memory,\n            address\n        )\n    {\n        require(index < forensicRecords.length, \"Invalid index\");\n        CrimeDetails storage record = forensicRecords[index];\n        emit ReportAccessed(index, msg.sender, block.timestamp);\n        return (\n            record.crimeId,\n            record.exhibitName,\n            record.desc,\n            record.timestamp,\n            record.ipfsHash,\n            record.addedBy\n        );\n    }\n\n    function getAllReports()\n        external\n        view\n        onlyRole(Role.Admin)\n        returns (CrimeDetails[] memory)\n    {\n        return forensicRecords;\n    }\n\n    // ------------------------\n    //  SHARED ACCESS CONTROL\n    // ------------------------\n    function grantAccess(uint256 caseId, address agency)\n        external\n        onlyRole(Role.Admin)\n    {\n        sharedAccess[caseId][agency] = true;\n        emit AccessGranted(caseId, agency, msg.sender);\n    }\n\n    function revokeAccess(uint256 caseId, address agency)\n        external\n        onlyRole(Role.Admin)\n    {\n        sharedAccess[caseId][agency] = false;\n        emit AccessRevoked(caseId, agency, msg.sender);\n    }\n\n    function hasAccess(uint256 caseId, address agency)\n        external\n        view\n        returns (bool)\n    {\n        return sharedAccess[caseId][agency];\n    }\n\n    // ------------------------\n    //  CONSENT LOGGING\n    // ------------------------\n    function logConsent(bytes32 consentHash) external {\n        ConsentRecord memory consent = ConsentRecord({\n            user: msg.sender,\n            consentHash: consentHash,\n            timestamp: block.timestamp\n        });\n        consentLogs[msg.sender].push(consent);\n        emit ConsentLogged(msg.sender, consentHash, block.timestamp);\n    }\n\n    function getConsentLogs(address user)\n        external\n        view\n        returns (ConsentRecord[] memory)\n    {\n        return consentLogs[user];\n    }\n}\n",
  "sourcePath": "C:\\Users\\jnthn\\OneDrive\\Desktop\\new second half projects\\Crime-Records-Blockchain\\contracts\\ForensicContract.sol",
  "compiler": {
    "name": "solc",
    "version": "0.8.20+commit.a1b79de6.Emscripten.clang"
  },
  "schemaVersion": "3.4.16",
  "updatedAt": "2025-10-24T09:29:06.540Z",
  "networkType": "ethereum",
  "devdoc": {
    "kind": "dev",
    "methods": {},
    "title": "ZRP Thadam - Forensic Contract",
    "version": 1
  },
  "userdoc": {
    "kind": "user",
    "methods": {},
    "notice": "Full blockchain-based forensic registry for Zimbabwe Republic Police (ZRP) Implements tamper-proof evidence tracking, secure sharing, and legal compliance.  Objectives covered:  1 Tamper-proof record storage with RBAC  2 Secure data sharing among agencies  3 Event logging for accountability  4 PII encryption anchoring (off-chain)  5 Consent & data-protection compliance",
    "version": 1
  }
}