{
  "contractName": "Migrations",
  "abi": [
    {
      "inputs": [],
      "stateMutability": "nonpayable",
      "type": "constructor"
    },
    {
      "anonymous": false,
      "inputs": [
        {
          "indexed": true,
          "internalType": "uint256",
          "name": "migrationId",
          "type": "uint256"
        },
        {
          "indexed": true,
          "internalType": "address",
          "name": "by",
          "type": "address"
        },
        {
          "indexed": false,
          "internalType": "uint256",
          "name": "timestamp",
          "type": "uint256"
        }
      ],
      "name": "MigrationCompleted",
      "type": "event"
    },
    {
      "anonymous": false,
      "inputs": [
        {
          "indexed": true,
          "internalType": "address",
          "name": "previousOwner",
          "type": "address"
        },
        {
          "indexed": true,
          "internalType": "address",
          "name": "newOwner",
          "type": "address"
        }
      ],
      "name": "OwnershipTransferred",
      "type": "event"
    },
    {
      "inputs": [],
      "name": "lastCompletedMigration",
      "outputs": [
        {
          "internalType": "uint256",
          "name": "",
          "type": "uint256"
        }
      ],
      "stateMutability": "view",
      "type": "function",
      "constant": true
    },
    {
      "inputs": [],
      "name": "lastMigrationTimestamp",
      "outputs": [
        {
          "internalType": "uint256",
          "name": "",
          "type": "uint256"
        }
      ],
      "stateMutability": "view",
      "type": "function",
      "constant": true
    },
    {
      "inputs": [],
      "name": "owner",
      "outputs": [
        {
          "internalType": "address",
          "name": "",
          "type": "address"
        }
      ],
      "stateMutability": "view",
      "type": "function",
      "constant": true
    },
    {
      "inputs": [
        {
          "internalType": "uint256",
          "name": "completed",
          "type": "uint256"
        }
      ],
      "name": "setCompleted",
      "outputs": [],
      "stateMutability": "nonpayable",
      "type": "function"
    },
    {
      "inputs": [
        {
          "internalType": "address",
          "name": "newAddress",
          "type": "address"
        }
      ],
      "name": "upgrade",
      "outputs": [],
      "stateMutability": "nonpayable",
      "type": "function"
    },
    {
      "inputs": [
        {
          "internalType": "address",
          "name": "newOwner",
          "type": "address"
        }
      ],
      "name": "transferOwnership",
      "outputs": [],
      "stateMutability": "nonpayable",
      "type": "function"
    }
  ],
  "bytecode": "0x608060405234801561000f575f80fd5b505f80546001600160a01b03191633179055426002556103c5806100325f395ff3fe608060405234801561000f575f80fd5b5060043610610060575f3560e01c80630900f0101461006457806384a8cceb146100795780638da5cb5b14610095578063f2fde38b146100bf578063fbdbad3c146100d2578063fdacd576146100db575b5f80fd5b61007761007236600461030a565b6100ee565b005b61008260025481565b6040519081526020015b60405180910390f35b5f546100a7906001600160a01b031681565b6040516001600160a01b03909116815260200161008c565b6100776100cd36600461030a565b6101da565b61008260015481565b6100776100e9366004610337565b61029c565b5f546001600160a01b031633146101205760405162461bcd60e51b81526004016101179061034e565b60405180910390fd5b6001600160a01b0381166101765760405162461bcd60e51b815260206004820152601760248201527f496e76616c6964207570677261646520616464726573730000000000000000006044820152606401610117565b600154604051637ed66abb60e11b815282916001600160a01b0383169163fdacd576916101a99160040190815260200190565b5f604051808303815f87803b1580156101c0575f80fd5b505af11580156101d2573d5f803e3d5ffd5b505050505050565b5f546001600160a01b031633146102035760405162461bcd60e51b81526004016101179061034e565b6001600160a01b03811661024d5760405162461bcd60e51b815260206004820152601160248201527024b73b30b634b2103732bb9037bbb732b960791b6044820152606401610117565b5f80546001600160a01b038381166001600160a01b0319831681178455604051919092169283917f8be0079c531659141344cd1fd0a4f28419497f9722a3daafe3b4186f6b6457e09190a35050565b5f546001600160a01b031633146102c55760405162461bcd60e51b81526004016101179061034e565b6001819055426002819055604051908152339082907f584a8cf4978b9dcf77b720addce50ee1d2b0d5f28b04fab25477b94381c767929060200160405180910390a350565b5f6020828403121561031a575f80fd5b81356001600160a01b0381168114610330575f80fd5b9392505050565b5f60208284031215610347575f80fd5b5035919050565b60208082526021908201527f4163636573732064656e6965643a206e6f7420636f6e7472616374206f776e656040820152603960f91b60608201526080019056fea264697066735822122096ced25c15976b83bbd0345c725fe0f24f4ce88ef38b1a6c7cf88d97546c861964736f6c63430008140033",
  "immutableReferences": {},
  "source": "// SPDX-License-Identifier: MIT\npragma solidity ^0.8.20;\n\n/**\n * @title ZRP Thadam - Migrations\n * @notice Tracks deployment versions of the ZRP Thadam blockchain-based registry.\n * \n * Purpose:\n *  - Ensures upgrade traceability across deployments.\n *  - Provides secure ownership transfer for controlled updates.\n *  - Emits auditable events for migration transparency.\n * \n * Features:\n *   Ownership control\n *   Migration index tracking\n *   Timestamped migration events\n *   Supports private / PoA networks\n * \n * @dev Used internally by Truffle or Hardhat deployment scripts.\n */\ncontract Migrations {\n    // ------------------------\n    //  STATE VARIABLES\n    // ------------------------\n    address public owner;\n    uint256 public lastCompletedMigration;\n    uint256 public lastMigrationTimestamp;\n\n    // ------------------------\n    //  MODIFIERS\n    // ------------------------\n    modifier onlyOwner() {\n        require(msg.sender == owner, \"Access denied: not contract owner\");\n        _;\n    }\n\n    // ------------------------\n    //  EVENTS\n    // ------------------------\n    event MigrationCompleted(uint256 indexed migrationId, address indexed by, uint256 timestamp);\n    event OwnershipTransferred(address indexed previousOwner, address indexed newOwner);\n\n    // ------------------------\n    //  CONSTRUCTOR\n    // ------------------------\n    constructor() {\n        owner = msg.sender;\n        lastMigrationTimestamp = block.timestamp;\n    }\n\n    // ------------------------\n    //  MIGRATION MANAGEMENT\n    // ------------------------\n    /**\n     * @notice Marks a migration as completed.\n     * @param completed The migration index or version number.\n     */\n    function setCompleted(uint256 completed) external onlyOwner {\n        lastCompletedMigration = completed;\n        lastMigrationTimestamp = block.timestamp;\n        emit MigrationCompleted(completed, msg.sender, block.timestamp);\n    }\n\n    /**\n     * @notice Upgrades to a new migration contract.\n     * @param newAddress The address of the new Migrations contract.\n     */\n    function upgrade(address newAddress) external onlyOwner {\n        require(newAddress != address(0), \"Invalid upgrade address\");\n        Migrations upgraded = Migrations(newAddress);\n        upgraded.setCompleted(lastCompletedMigration);\n    }\n\n    // ------------------------\n    //  OWNERSHIP CONTROL\n    // ------------------------\n    /**\n     * @notice Transfers ownership to another account.\n     * @param newOwner The address of the new owner.\n     */\n    function transferOwnership(address newOwner) external onlyOwner {\n        require(newOwner != address(0), \"Invalid new owner\");\n        address oldOwner = owner;\n        owner = newOwner;\n        emit OwnershipTransferred(oldOwner, newOwner);\n    }\n}\n",
  "sourcePath": "C:\\Users\\jnthn\\OneDrive\\Desktop\\new second half projects\\Crime-Records-Blockchain\\contracts\\Migrations.sol",
  "compiler": {
    "name": "solc",
    "version": "0.8.20+commit.a1b79de6.Emscripten.clang"
  },
  "schemaVersion": "3.4.16",
  "updatedAt": "2025-10-24T09:29:06.686Z",
  "networkType": "ethereum",
  "devdoc": {
    "details": "Used internally by Truffle or Hardhat deployment scripts.",
    "kind": "dev",
    "methods": {
      "setCompleted(uint256)": {
        "params": {
          "completed": "The migration index or version number."
        }
      },
      "transferOwnership(address)": {
        "params": {
          "newOwner": "The address of the new owner."
        }
      },
      "upgrade(address)": {
        "params": {
          "newAddress": "The address of the new Migrations contract."
        }
      }
    },
    "title": "ZRP Thadam - Migrations",
    "version": 1
  },
  "userdoc": {
    "kind": "user",
    "methods": {
      "setCompleted(uint256)": {
        "notice": "Marks a migration as completed."
      },
      "transferOwnership(address)": {
        "notice": "Transfers ownership to another account."
      },
      "upgrade(address)": {
        "notice": "Upgrades to a new migration contract."
      }
    },
    "notice": "Tracks deployment versions of the ZRP Thadam blockchain-based registry.  Purpose:  - Ensures upgrade traceability across deployments.  - Provides secure ownership transfer for controlled updates.  - Emits auditable events for migration transparency.  Features:   Ownership control   Migration index tracking   Timestamped migration events   Supports private / PoA networks ",
    "version": 1
  }
}