{
  "contractName": "SimpleStorage",
  "abi": [
    {
      "inputs": [],
      "stateMutability": "nonpayable",
      "type": "constructor"
    },
    {
      "anonymous": false,
      "inputs": [
        {
          "indexed": true,
          "internalType": "address",
          "name": "user",
          "type": "address"
        },
        {
          "indexed": false,
          "internalType": "bytes32",
          "name": "consentHash",
          "type": "bytes32"
        },
        {
          "indexed": false,
          "internalType": "uint256",
          "name": "timestamp",
          "type": "uint256"
        }
      ],
      "name": "ConsentLogged",
      "type": "event"
    },
    {
      "anonymous": false,
      "inputs": [
        {
          "indexed": true,
          "internalType": "uint256",
          "name": "index",
          "type": "uint256"
        },
        {
          "indexed": true,
          "internalType": "address",
          "name": "accessedBy",
          "type": "address"
        },
        {
          "indexed": false,
          "internalType": "uint256",
          "name": "timestamp",
          "type": "uint256"
        }
      ],
      "name": "CrimeReportAccessed",
      "type": "event"
    },
    {
      "anonymous": false,
      "inputs": [
        {
          "indexed": true,
          "internalType": "uint256",
          "name": "crimeId",
          "type": "uint256"
        },
        {
          "indexed": true,
          "internalType": "address",
          "name": "addedBy",
          "type": "address"
        },
        {
          "indexed": false,
          "internalType": "string",
          "name": "ipfsHash",
          "type": "string"
        },
        {
          "indexed": false,
          "internalType": "bytes32",
          "name": "dataHash",
          "type": "bytes32"
        }
      ],
      "name": "CrimeReportAdded",
      "type": "event"
    },
    {
      "anonymous": false,
      "inputs": [
        {
          "indexed": true,
          "internalType": "uint256",
          "name": "crimeId",
          "type": "uint256"
        },
        {
          "indexed": false,
          "internalType": "bool",
          "name": "verified",
          "type": "bool"
        },
        {
          "indexed": false,
          "internalType": "uint256",
          "name": "timestamp",
          "type": "uint256"
        }
      ],
      "name": "DataTamperCheck",
      "type": "event"
    },
    {
      "anonymous": false,
      "inputs": [
        {
          "indexed": true,
          "internalType": "address",
          "name": "user",
          "type": "address"
        },
        {
          "indexed": false,
          "internalType": "enum SimpleStorage.Role",
          "name": "role",
          "type": "uint8"
        }
      ],
      "name": "RoleAssigned",
      "type": "event"
    },
    {
      "inputs": [
        {
          "internalType": "address",
          "name": "",
          "type": "address"
        },
        {
          "internalType": "uint256",
          "name": "",
          "type": "uint256"
        }
      ],
      "name": "consentLogs",
      "outputs": [
        {
          "internalType": "address",
          "name": "user",
          "type": "address"
        },
        {
          "internalType": "bytes32",
          "name": "consentHash",
          "type": "bytes32"
        },
        {
          "internalType": "uint256",
          "name": "timestamp",
          "type": "uint256"
        }
      ],
      "stateMutability": "view",
      "type": "function",
      "constant": true
    },
    {
      "inputs": [],
      "name": "contractOwner",
      "outputs": [
        {
          "internalType": "address",
          "name": "",
          "type": "address"
        }
      ],
      "stateMutability": "view",
      "type": "function",
      "constant": true
    },
    {
      "inputs": [
        {
          "internalType": "address",
          "name": "user",
          "type": "address"
        },
        {
          "internalType": "enum SimpleStorage.Role",
          "name": "role",
          "type": "uint8"
        }
      ],
      "name": "assignRole",
      "outputs": [],
      "stateMutability": "nonpayable",
      "type": "function"
    },
    {
      "inputs": [
        {
          "internalType": "address",
          "name": "user",
          "type": "address"
        }
      ],
      "name": "getUserRole",
      "outputs": [
        {
          "internalType": "enum SimpleStorage.Role",
          "name": "",
          "type": "uint8"
        }
      ],
      "stateMutability": "view",
      "type": "function",
      "constant": true
    },
    {
      "inputs": [
        {
          "internalType": "uint256",
          "name": "_crimeId",
          "type": "uint256"
        },
        {
          "internalType": "string",
          "name": "_timestamp",
          "type": "string"
        },
        {
          "internalType": "string",
          "name": "_offenseCode",
          "type": "string"
        },
        {
          "internalType": "string",
          "name": "_ipfsHash",
          "type": "string"
        },
        {
          "internalType": "bytes32",
          "name": "_dataHash",
          "type": "bytes32"
        }
      ],
      "name": "addCrimeReport",
      "outputs": [
        {
          "internalType": "uint256",
          "name": "",
          "type": "uint256"
        }
      ],
      "stateMutability": "nonpayable",
      "type": "function"
    },
    {
      "inputs": [],
      "name": "getCrimeCount",
      "outputs": [
        {
          "internalType": "uint256",
          "name": "",
          "type": "uint256"
        }
      ],
      "stateMutability": "view",
      "type": "function",
      "constant": true
    },
    {
      "inputs": [
        {
          "internalType": "uint256",
          "name": "index",
          "type": "uint256"
        }
      ],
      "name": "getCrimeBlock",
      "outputs": [
        {
          "internalType": "uint256",
          "name": "",
          "type": "uint256"
        },
        {
          "internalType": "string",
          "name": "",
          "type": "string"
        },
        {
          "internalType": "string",
          "name": "",
          "type": "string"
        },
        {
          "internalType": "string",
          "name": "",
          "type": "string"
        },
        {
          "internalType": "bytes32",
          "name": "",
          "type": "bytes32"
        },
        {
          "internalType": "address",
          "name": "",
          "type": "address"
        }
      ],
      "stateMutability": "nonpayable",
      "type": "function"
    },
    {
      "inputs": [
        {
          "internalType": "uint256",
          "name": "index",
          "type": "uint256"
        },
        {
          "internalType": "bytes32",
          "name": "providedHash",
          "type": "bytes32"
        }
      ],
      "name": "verifyDataIntegrity",
      "outputs": [
        {
          "internalType": "bool",
          "name": "verified",
          "type": "bool"
        }
      ],
      "stateMutability": "nonpayable",
      "type": "function"
    },
    {
      "inputs": [],
      "name": "getAllCrimeDetails",
      "outputs": [
        {
          "components": [
            {
              "internalType": "uint256",
              "name": "crimeId",
              "type": "uint256"
            },
            {
              "internalType": "string",
              "name": "timestamp",
              "type": "string"
            },
            {
              "internalType": "string",
              "name": "offenseCode",
              "type": "string"
            },
            {
              "internalType": "string",
              "name": "ipfsHash",
              "type": "string"
            },
            {
              "internalType": "bytes32",
              "name": "dataHash",
              "type": "bytes32"
            },
            {
              "internalType": "address",
              "name": "addedBy",
              "type": "address"
            }
          ],
          "internalType": "struct SimpleStorage.CrimeDetails[]",
          "name": "",
          "type": "tuple[]"
        }
      ],
      "stateMutability": "view",
      "type": "function",
      "constant": true
    },
    {
      "inputs": [
        {
          "internalType": "bytes32",
          "name": "consentHash",
          "type": "bytes32"
        }
      ],
      "name": "logConsent",
      "outputs": [],
      "stateMutability": "nonpayable",
      "type": "function"
    },
    {
      "inputs": [
        {
          "internalType": "address",
          "name": "user",
          "type": "address"
        }
      ],
      "name": "getConsentLogs",
      "outputs": [
        {
          "components": [
            {
              "internalType": "address",
              "name": "user",
              "type": "address"
            },
            {
              "internalType": "bytes32",
              "name": "consentHash",
              "type": "bytes32"
            },
            {
              "internalType": "uint256",
              "name": "timestamp",
              "type": "uint256"
            }
          ],
          "internalType": "struct SimpleStorage.ConsentRecord[]",
          "name": "",
          "type": "tuple[]"
        }
      ],
      "stateMutability": "view",
      "type": "function",
      "constant": true
    }
  ],
  "bytecode": "0x608060405234801561000f575f80fd5b5060018054336001600160a01b031990911681179091555f908152602081905260409020805460ff191660031790556113788061004b5f395ff3fe608060405234801561000f575f80fd5b50600436106100a6575f3560e01c8063644f30de1161006e578063644f30de1461015857806389e0465b1461016d578063a2e2f95e14610190578063ce606ee0146101b1578063e23a4a92146101dc578063fdb917ed14610214575f80fd5b806327820851146100aa5780633cb4c1cb146100eb57806341121364146101105780634c75d1ba14610130578063630a195b14610145575b5f80fd5b6100d56100b8366004610d97565b6001600160a01b03165f9081526020819052604090205460ff1690565b6040516100e29190610dcb565b60405180910390f35b6100fe6100f9366004610df1565b61021c565b6040516100e296959493929190610e4b565b61012361011e366004610d97565b610521565b6040516100e29190610ead565b61014361013e366004610df1565b6105b7565b005b610143610153366004610f0e565b610665565b6101606107fc565b6040516100e29190610f46565b61018061017b36600461100d565b610aa5565b60405190151581526020016100e2565b6101a361019e3660046110ca565b610b7b565b6040519081526020016100e2565b6001546101c4906001600160a01b031681565b6040516001600160a01b0390911681526020016100e2565b6101ef6101ea36600461115d565b610d34565b604080516001600160a01b0390941684526020840192909252908201526060016100e2565b6002546101a3565b5f606080808380600280335f9081526020819052604090205460ff16600381111561024957610249610db7565b148061027757506003335f9081526020819052604090205460ff16600381111561027557610275610db7565b145b61029c5760405162461bcd60e51b815260040161029390611185565b60405180910390fd5b60025488106102dd5760405162461bcd60e51b815260206004820152600d60248201526c092dcecc2d8d2c840d2dcc8caf609b1b6044820152606401610293565b5f600289815481106102f1576102f16111cb565b905f5260205f2090600602019050336001600160a01b0316897f3b46817a52cdc62267c077c0d2d027c35c1e7aad0a5265a097788787e5ac3fe84260405161033b91815260200190565b60405180910390a38054600482015460058301546001840180549092600286019260038701926001600160a01b03909116908590610378906111df565b80601f01602080910402602001604051908101604052809291908181526020018280546103a4906111df565b80156103ef5780601f106103c6576101008083540402835291602001916103ef565b820191905f5260205f20905b8154815290600101906020018083116103d257829003601f168201915b50505050509450838054610402906111df565b80601f016020809104026020016040519081016040528092919081815260200182805461042e906111df565b80156104795780601f1061045057610100808354040283529160200191610479565b820191905f5260205f20905b81548152906001019060200180831161045c57829003601f168201915b5050505050935082805461048c906111df565b80601f01602080910402602001604051908101604052809291908181526020018280546104b8906111df565b80156105035780601f106104da57610100808354040283529160200191610503565b820191905f5260205f20905b8154815290600101906020018083116104e657829003601f168201915b50505050509250975097509750975097509750505091939550919395565b6001600160a01b0381165f908152600360209081526040808320805482518185028101850190935280835260609492939192909184015b828210156105ac575f848152602090819020604080516060810182526003860290920180546001600160a01b0316835260018082015484860152600290910154918301919091529083529092019101610558565b505050509050919050565b60408051606081018252338082526020808301858152428486018181525f85815260038086528882208054600180820183559184529287902089519390920290910180546001600160a01b0319166001600160a01b0390931692909217825593519381019390935551600290920191909155845186815291820152919290917fd3a00f2205dacf9d7f57bc15d165f4d01316cbc3cebea1e5cee90e53d2f71c5b910160405180910390a25050565b600380335f9081526020819052604090205460ff16600381111561068b5761068b610db7565b14806106b957506003335f9081526020819052604090205460ff1660038111156106b7576106b7610db7565b145b6106d55760405162461bcd60e51b815260040161029390611185565b6001600160a01b03831661071d5760405162461bcd60e51b815260206004820152600f60248201526e496e76616c6964206164647265737360881b6044820152606401610293565b5f82600381111561073057610730610db7565b0361077d5760405162461bcd60e51b815260206004820152601960248201527f43616e6e6f742061737369676e20274e6f6e652720726f6c65000000000000006044820152606401610293565b6001600160a01b0383165f908152602081905260409020805483919060ff191660018360038111156107b1576107b1610db7565b0217905550826001600160a01b03167f4ac36fa53f167ceb85964be512e01de2a3b8bdb9862f917da079deeeff689b38836040516107ef9190610dcb565b60405180910390a2505050565b6060600380335f9081526020819052604090205460ff16600381111561082457610824610db7565b148061085257506003335f9081526020819052604090205460ff16600381111561085057610850610db7565b145b61086e5760405162461bcd60e51b815260040161029390611185565b6002805480602002602001604051908101604052809291908181526020015f905b82821015610a9b578382905f5260205f2090600602016040518060c00160405290815f82015481526020016001820180546108c9906111df565b80601f01602080910402602001604051908101604052809291908181526020018280546108f5906111df565b80156109405780601f1061091757610100808354040283529160200191610940565b820191905f5260205f20905b81548152906001019060200180831161092357829003601f168201915b50505050508152602001600282018054610959906111df565b80601f0160208091040260200160405190810160405280929190818152602001828054610985906111df565b80156109d05780601f106109a7576101008083540402835291602001916109d0565b820191905f5260205f20905b8154815290600101906020018083116109b357829003601f168201915b505050505081526020016003820180546109e9906111df565b80601f0160208091040260200160405190810160405280929190818152602001828054610a15906111df565b8015610a605780601f10610a3757610100808354040283529160200191610a60565b820191905f5260205f20905b815481529060010190602001808311610a4357829003601f168201915b505050918352505060048201546020808301919091526005909201546001600160a01b0316604090910152908252600192909201910161088f565b5050505091505090565b6002545f908310610ae85760405162461bcd60e51b815260206004820152600d60248201526c092dcecc2d8d2c840d2dcc8caf609b1b6044820152606401610293565b8160028481548110610afc57610afc6111cb565b905f5260205f2090600602016004015414905060028381548110610b2257610b226111cb565b905f5260205f2090600602015f01547fe11f00d70310cbd8f5b64f5d082c9e558d506e802e46e6044ec4dd57b8931db58242604051610b6d9291909115158252602082015260400190565b60405180910390a292915050565b5f600180335f9081526020819052604090205460ff166003811115610ba257610ba2610db7565b1480610bd057506003335f9081526020819052604090205460ff166003811115610bce57610bce610db7565b145b610bec5760405162461bcd60e51b815260040161029390611185565b6040805160c0810182528881526020810188815291810187905260608101869052608081018590523360a0820152600280546001810182555f91909152815160069091027f405787fa12a823e0f2b7631cc41b3ba8828b3321ca811111fa75cd3aa3bb5ace81019182559251919290917f405787fa12a823e0f2b7631cc41b3ba8828b3321ca811111fa75cd3aa3bb5acf90910190610c8b9082611265565b5060408201516002820190610ca09082611265565b5060608201516003820190610cb59082611265565b506080820151600482015560a090910151600590910180546001600160a01b0319166001600160a01b03909216919091179055604051339088907f76eb17583ba6e0ef8baab5bd9cd9717753f1e0b7b06969c61ae1f579dff8bf3e90610d1e9088908890611321565b60405180910390a3505060025495945050505050565b6003602052815f5260405f208181548110610d4d575f80fd5b5f9182526020909120600390910201805460018201546002909201546001600160a01b03909116935090915083565b80356001600160a01b0381168114610d92575f80fd5b919050565b5f60208284031215610da7575f80fd5b610db082610d7c565b9392505050565b634e487b7160e01b5f52602160045260245ffd5b6020810160048310610deb57634e487b7160e01b5f52602160045260245ffd5b91905290565b5f60208284031215610e01575f80fd5b5035919050565b5f81518084525f5b81811015610e2c57602081850181015186830182015201610e10565b505f602082860101526020601f19601f83011685010191505092915050565b86815260c060208201525f610e6360c0830188610e08565b8281036040840152610e758188610e08565b90508281036060840152610e898187610e08565b608084019590955250506001600160a01b039190911660a090910152949350505050565b602080825282518282018190525f919060409081850190868401855b82811015610f0157815180516001600160a01b0316855286810151878601528501518585015260609093019290850190600101610ec9565b5091979650505050505050565b5f8060408385031215610f1f575f80fd5b610f2883610d7c565b9150602083013560048110610f3b575f80fd5b809150509250929050565b5f6020808301818452808551808352604092508286019150828160051b8701018488015f5b83811015610fff57603f19898403018552815160c08151855288820151818a870152610f9982870182610e08565b9150508782015185820389870152610fb18282610e08565b91505060608083015186830382880152610fcb8382610e08565b6080858101519089015260a0948501516001600160a01b031694909701939093525050509386019390860190600101610f6b565b509098975050505050505050565b5f806040838503121561101e575f80fd5b50508035926020909101359150565b634e487b7160e01b5f52604160045260245ffd5b5f82601f830112611050575f80fd5b813567ffffffffffffffff8082111561106b5761106b61102d565b604051601f8301601f19908116603f011681019082821181831017156110935761109361102d565b816040528381528660208588010111156110ab575f80fd5b836020870160208301375f602085830101528094505050505092915050565b5f805f805f60a086880312156110de575f80fd5b85359450602086013567ffffffffffffffff808211156110fc575f80fd5b61110889838a01611041565b9550604088013591508082111561111d575f80fd5b61112989838a01611041565b9450606088013591508082111561113e575f80fd5b5061114b88828901611041565b95989497509295608001359392505050565b5f806040838503121561116e575f80fd5b61117783610d7c565b946020939093013593505050565b60208082526026908201527f4163636573732064656e6965643a20696e73756666696369656e742070726976604082015265696c6567657360d01b606082015260800190565b634e487b7160e01b5f52603260045260245ffd5b600181811c908216806111f357607f821691505b60208210810361121157634e487b7160e01b5f52602260045260245ffd5b50919050565b601f821115611260575f81815260208120601f850160051c8101602086101561123d5750805b601f850160051c820191505b8181101561125c57828155600101611249565b5050505b505050565b815167ffffffffffffffff81111561127f5761127f61102d565b6112938161128d84546111df565b84611217565b602080601f8311600181146112c6575f84156112af5750858301515b5f19600386901b1c1916600185901b17855561125c565b5f85815260208120601f198616915b828110156112f4578886015182559484019460019091019084016112d5565b508582101561131157878501515f19600388901b60f8161c191681555b5050505050600190811b01905550565b604081525f6113336040830185610e08565b9050826020830152939250505056fea26469706673582212200a00ce1afabdf19b32bd4e0dfd527e31c432dd2f84dfa8d68b8173026a5fa47464736f6c63430008140033",
  "immutableReferences": {},
  "source": "// SPDX-License-Identifier: MIT\npragma solidity ^0.8.20;\n\n/**\n * @title ZRP Thadam - SimpleStorage (Crime Registry Core)\n * @notice Base blockchain module for crime registry records.\n * \n * Objectives:\n *  1 Tamper-proof crime record anchoring\n *  2 Role-based access (Police, Forensic, Admin)\n *  3 Full event audit trail\n *  4 Off-chain encrypted IPFS linkage\n *  5 Consent tracking for compliance\n * \n * @dev Works as the foundational storage contract in the ZRP Thadam system.\n * Compatible with MetaMask, Web3.js, and private PoA networks (Geth / Besu).\n */\ncontract SimpleStorage {\n    // ------------------------\n    //  ROLE MANAGEMENT\n    // ------------------------\n    enum Role { None, Police, Forensic, Admin }\n    mapping(address => Role) private roles;\n    address public contractOwner;\n\n    modifier onlyOwner() {\n        require(msg.sender == contractOwner, \"Access denied: not contract owner\");\n        _;\n    }\n\n    modifier onlyRole(Role required) {\n        require(\n            roles[msg.sender] == required || roles[msg.sender] == Role.Admin,\n            \"Access denied: insufficient privileges\"\n        );\n        _;\n    }\n\n    constructor() {\n        contractOwner = msg.sender;\n        roles[msg.sender] = Role.Admin; // Deployer = Admin\n    }\n\n    // ------------------------\n    //  DATA STRUCTURES\n    // ------------------------\n    struct CrimeDetails {\n        uint256 crimeId;       // Unique identifier\n        string timestamp;      // Time of creation\n        string offenseCode;    // Offense category/code\n        string ipfsHash;       // Encrypted off-chain data (CID)\n        bytes32 dataHash;      // SHA256 hash of off-chain encrypted data\n        address addedBy;       // Police officer submitting the record\n    }\n\n    CrimeDetails[] private crimeReports;\n\n    // Consent tracking\n    struct ConsentRecord {\n        address user;\n        bytes32 consentHash;\n        uint256 timestamp;\n    }\n\n    mapping(address => ConsentRecord[]) public consentLogs;\n\n    // ------------------------\n    //  EVENTS\n    // ------------------------\n    event RoleAssigned(address indexed user, Role role);\n    event CrimeReportAdded(\n        uint256 indexed crimeId,\n        address indexed addedBy,\n        string ipfsHash,\n        bytes32 dataHash\n    );\n    event CrimeReportAccessed(uint256 indexed index, address indexed accessedBy, uint256 timestamp);\n    event ConsentLogged(address indexed user, bytes32 consentHash, uint256 timestamp);\n    event DataTamperCheck(uint256 indexed crimeId, bool verified, uint256 timestamp);\n\n    // ------------------------\n    //  ROLE ASSIGNMENT\n    // ------------------------\n    function assignRole(address user, Role role) external onlyRole(Role.Admin) {\n        require(user != address(0), \"Invalid address\");\n        require(role != Role.None, \"Cannot assign 'None' role\");\n        roles[user] = role;\n        emit RoleAssigned(user, role);\n    }\n\n    function getUserRole(address user) external view returns (Role) {\n        return roles[user];\n    }\n\n    // ------------------------\n    //  CRIME REPORT STORAGE\n    // ------------------------\n    /**\n     * @notice Add a new crime report (Police only).\n     * @param _crimeId Unique case identifier\n     * @param _timestamp Time created\n     * @param _offenseCode Offense category or section code\n     * @param _ipfsHash CID reference to encrypted data\n     * @param _dataHash SHA256 hash of the encrypted data\n     */\n    function addCrimeReport(\n        uint256 _crimeId,\n        string memory _timestamp,\n        string memory _offenseCode,\n        string memory _ipfsHash,\n        bytes32 _dataHash\n    ) external onlyRole(Role.Police) returns (uint256) {\n        crimeReports.push(\n            CrimeDetails({\n                crimeId: _crimeId,\n                timestamp: _timestamp,\n                offenseCode: _offenseCode,\n                ipfsHash: _ipfsHash,\n                dataHash: _dataHash,\n                addedBy: msg.sender\n            })\n        );\n\n        emit CrimeReportAdded(_crimeId, msg.sender, _ipfsHash, _dataHash);\n        return crimeReports.length;\n    }\n\n    function getCrimeCount() external view returns (uint256) {\n        return crimeReports.length;\n    }\n\n    /**\n     * @notice Retrieve a specific report (Forensic or Admin).\n     */\n    function getCrimeBlock(uint256 index)\n        external\n        onlyRole(Role.Forensic)\n        returns (\n            uint256,\n            string memory,\n            string memory,\n            string memory,\n            bytes32,\n            address\n        )\n    {\n        require(index < crimeReports.length, \"Invalid index\");\n        CrimeDetails storage c = crimeReports[index];\n        emit CrimeReportAccessed(index, msg.sender, block.timestamp);\n        return (\n            c.crimeId,\n            c.timestamp,\n            c.offenseCode,\n            c.ipfsHash,\n            c.dataHash,\n            c.addedBy\n        );\n    }\n\n    /**\n     * @notice Verify the hash integrity of a specific crime report.\n     * @param index Index of the report to verify.\n     * @param providedHash The SHA256 hash to compare against.\n     * @return verified True if hashes match.\n     */\n    function verifyDataIntegrity(uint256 index, bytes32 providedHash)\n        external\n        returns (bool verified)\n    {\n        require(index < crimeReports.length, \"Invalid index\");\n        verified = (crimeReports[index].dataHash == providedHash);\n        emit DataTamperCheck(crimeReports[index].crimeId, verified, block.timestamp);\n        return verified;\n    }\n\n    /**\n     * @notice Retrieve all stored reports (Admin only).\n     */\n    function getAllCrimeDetails()\n        external\n        view\n        onlyRole(Role.Admin)\n        returns (CrimeDetails[] memory)\n    {\n        return crimeReports;\n    }\n\n    // ------------------------\n    //  CONSENT LOGGING\n    // ------------------------\n    function logConsent(bytes32 consentHash) external {\n        ConsentRecord memory consent = ConsentRecord({\n            user: msg.sender,\n            consentHash: consentHash,\n            timestamp: block.timestamp\n        });\n        consentLogs[msg.sender].push(consent);\n        emit ConsentLogged(msg.sender, consentHash, block.timestamp);\n    }\n\n    function getConsentLogs(address user)\n        external\n        view\n        returns (ConsentRecord[] memory)\n    {\n        return consentLogs[user];\n    }\n}\n",
  "sourcePath": "C:\\Users\\jnthn\\OneDrive\\Desktop\\new second half projects\\Crime-Records-Blockchain\\contracts\\SimpleStorage.sol",
  "compiler": {
    "name": "solc",
    "version": "0.8.20+commit.a1b79de6.Emscripten.clang"
  },
  "schemaVersion": "3.4.16",
  "updatedAt": "2025-10-24T09:29:06.530Z",
  "networkType": "ethereum",
  "devdoc": {
    "details": "Works as the foundational storage contract in the ZRP Thadam system. Compatible with MetaMask, Web3.js, and private PoA networks (Geth / Besu).",
    "kind": "dev",
    "methods": {
      "addCrimeReport(uint256,string,string,string,bytes32)": {
        "params": {
          "_crimeId": "Unique case identifier",
          "_dataHash": "SHA256 hash of the encrypted data",
          "_ipfsHash": "CID reference to encrypted data",
          "_offenseCode": "Offense category or section code",
          "_timestamp": "Time created"
        }
      },
      "verifyDataIntegrity(uint256,bytes32)": {
        "params": {
          "index": "Index of the report to verify.",
          "providedHash": "The SHA256 hash to compare against."
        },
        "returns": {
          "verified": "True if hashes match."
        }
      }
    },
    "title": "ZRP Thadam - SimpleStorage (Crime Registry Core)",
    "version": 1
  },
  "userdoc": {
    "kind": "user",
    "methods": {
      "addCrimeReport(uint256,string,string,string,bytes32)": {
        "notice": "Add a new crime report (Police only)."
      },
      "getAllCrimeDetails()": {
        "notice": "Retrieve all stored reports (Admin only)."
      },
      "getCrimeBlock(uint256)": {
        "notice": "Retrieve a specific report (Forensic or Admin)."
      },
      "verifyDataIntegrity(uint256,bytes32)": {
        "notice": "Verify the hash integrity of a specific crime report."
      }
    },
    "notice": "Base blockchain module for crime registry records.  Objectives:  1 Tamper-proof crime record anchoring  2 Role-based access (Police, Forensic, Admin)  3 Full event audit trail  4 Off-chain encrypted IPFS linkage  5 Consent tracking for compliance ",
    "version": 1
  }
}